{
  "_format": "hh-sol-artifact-1",
  "contractName": "CoinCredd",
  "sourceName": "contracts/CoinCred.sol",
  "abi": [
    {
      "inputs": [
        {
          "internalType": "address[]",
          "name": "_tokens",
          "type": "address[]"
        },
        {
          "internalType": "address[]",
          "name": "_priceFeed",
          "type": "address[]"
        },
        {
          "internalType": "address[]",
          "name": "_collateral",
          "type": "address[]"
        },
        {
          "internalType": "address[]",
          "name": "_collateralPriceFeed",
          "type": "address[]"
        }
      ],
      "stateMutability": "nonpayable",
      "type": "constructor"
    },
    {
      "anonymous": false,
      "inputs": [
        {
          "indexed": true,
          "internalType": "address",
          "name": "_requster",
          "type": "address"
        },
        {
          "indexed": true,
          "internalType": "address",
          "name": "_token",
          "type": "address"
        },
        {
          "indexed": false,
          "internalType": "uint256",
          "name": "_collateralAmount",
          "type": "uint256"
        }
      ],
      "name": "Cancel",
      "type": "event"
    },
    {
      "anonymous": false,
      "inputs": [
        {
          "indexed": true,
          "internalType": "address",
          "name": "_requster",
          "type": "address"
        },
        {
          "indexed": true,
          "internalType": "address",
          "name": "_token",
          "type": "address"
        },
        {
          "indexed": true,
          "internalType": "address",
          "name": "_lender",
          "type": "address"
        },
        {
          "indexed": false,
          "internalType": "uint256",
          "name": "_tokenMaount",
          "type": "uint256"
        }
      ],
      "name": "Lend",
      "type": "event"
    },
    {
      "anonymous": false,
      "inputs": [
        {
          "indexed": true,
          "internalType": "address",
          "name": "_requster",
          "type": "address"
        },
        {
          "indexed": true,
          "internalType": "address",
          "name": "_token",
          "type": "address"
        },
        {
          "indexed": true,
          "internalType": "address",
          "name": "_liquidator",
          "type": "address"
        },
        {
          "indexed": false,
          "internalType": "uint256",
          "name": "_tokenMaount",
          "type": "uint256"
        }
      ],
      "name": "Liquidate",
      "type": "event"
    },
    {
      "anonymous": false,
      "inputs": [
        {
          "indexed": true,
          "internalType": "address",
          "name": "_requster",
          "type": "address"
        },
        {
          "indexed": true,
          "internalType": "address",
          "name": "_token",
          "type": "address"
        },
        {
          "indexed": false,
          "internalType": "uint256",
          "name": "_tokenMaount",
          "type": "uint256"
        }
      ],
      "name": "Repay",
      "type": "event"
    },
    {
      "anonymous": false,
      "inputs": [
        {
          "indexed": true,
          "internalType": "address",
          "name": "_requster",
          "type": "address"
        },
        {
          "indexed": true,
          "internalType": "address",
          "name": "_token",
          "type": "address"
        },
        {
          "indexed": true,
          "internalType": "uint256",
          "name": "_tokenAmount",
          "type": "uint256"
        },
        {
          "indexed": false,
          "internalType": "uint256",
          "name": "_tokenProfit",
          "type": "uint256"
        },
        {
          "indexed": false,
          "internalType": "uint256",
          "name": "_requestId",
          "type": "uint256"
        }
      ],
      "name": "Request",
      "type": "event"
    },
    {
      "stateMutability": "payable",
      "type": "fallback"
    },
    {
      "inputs": [
        {
          "internalType": "uint256",
          "name": "_loanId",
          "type": "uint256"
        }
      ],
      "name": "RepayLoan",
      "outputs": [],
      "stateMutability": "nonpayable",
      "type": "function"
    },
    {
      "inputs": [
        {
          "internalType": "uint256",
          "name": "",
          "type": "uint256"
        }
      ],
      "name": "allowedCollateral",
      "outputs": [
        {
          "internalType": "address",
          "name": "",
          "type": "address"
        }
      ],
      "stateMutability": "view",
      "type": "function"
    },
    {
      "inputs": [
        {
          "internalType": "uint256",
          "name": "",
          "type": "uint256"
        }
      ],
      "name": "allowedTokens",
      "outputs": [
        {
          "internalType": "address",
          "name": "",
          "type": "address"
        }
      ],
      "stateMutability": "view",
      "type": "function"
    },
    {
      "inputs": [
        {
          "internalType": "uint256",
          "name": "_loanId",
          "type": "uint256"
        }
      ],
      "name": "cancelLoanRequest",
      "outputs": [],
      "stateMutability": "nonpayable",
      "type": "function"
    },
    {
      "inputs": [
        {
          "internalType": "address",
          "name": "",
          "type": "address"
        }
      ],
      "name": "collateral",
      "outputs": [
        {
          "internalType": "address",
          "name": "",
          "type": "address"
        }
      ],
      "stateMutability": "view",
      "type": "function"
    },
    {
      "inputs": [
        {
          "internalType": "address",
          "name": "",
          "type": "address"
        }
      ],
      "name": "collateralAllowed",
      "outputs": [
        {
          "internalType": "bool",
          "name": "",
          "type": "bool"
        }
      ],
      "stateMutability": "view",
      "type": "function"
    },
    {
      "inputs": [
        {
          "internalType": "address",
          "name": "_tokenRequest",
          "type": "address"
        },
        {
          "internalType": "uint256",
          "name": "_tokenAmount",
          "type": "uint256"
        },
        {
          "internalType": "uint256",
          "name": "_tokenProfit",
          "type": "uint256"
        },
        {
          "internalType": "uint256",
          "name": "duration",
          "type": "uint256"
        },
        {
          "internalType": "address",
          "name": "_collateralAddress",
          "type": "address"
        }
      ],
      "name": "createLoanRequest",
      "outputs": [],
      "stateMutability": "payable",
      "type": "function"
    },
    {
      "inputs": [
        {
          "internalType": "address",
          "name": "_lender",
          "type": "address"
        }
      ],
      "name": "getAllLenderRequest",
      "outputs": [
        {
          "components": [
            {
              "internalType": "address",
              "name": "loanRequester",
              "type": "address"
            },
            {
              "internalType": "address",
              "name": "lender",
              "type": "address"
            },
            {
              "internalType": "address",
              "name": "tokenRequest",
              "type": "address"
            },
            {
              "internalType": "uint256",
              "name": "tokenAmount",
              "type": "uint256"
            },
            {
              "internalType": "uint256",
              "name": "tokenProfit",
              "type": "uint256"
            },
            {
              "internalType": "uint256",
              "name": "loanId",
              "type": "uint256"
            },
            {
              "internalType": "bool",
              "name": "lendOut",
              "type": "bool"
            },
            {
              "internalType": "uint256",
              "name": "duration",
              "type": "uint256"
            },
            {
              "internalType": "address",
              "name": "collateralAddr",
              "type": "address"
            },
            {
              "internalType": "uint256",
              "name": "collatrealAmount",
              "type": "uint256"
            }
          ],
          "internalType": "struct ICoinCred.RequestLoan[]",
          "name": "loans",
          "type": "tuple[]"
        }
      ],
      "stateMutability": "view",
      "type": "function"
    },
    {
      "inputs": [],
      "name": "getAllLoanRequestIssued",
      "outputs": [
        {
          "components": [
            {
              "internalType": "address",
              "name": "loanRequester",
              "type": "address"
            },
            {
              "internalType": "address",
              "name": "lender",
              "type": "address"
            },
            {
              "internalType": "address",
              "name": "tokenRequest",
              "type": "address"
            },
            {
              "internalType": "uint256",
              "name": "tokenAmount",
              "type": "uint256"
            },
            {
              "internalType": "uint256",
              "name": "tokenProfit",
              "type": "uint256"
            },
            {
              "internalType": "uint256",
              "name": "loanId",
              "type": "uint256"
            },
            {
              "internalType": "bool",
              "name": "lendOut",
              "type": "bool"
            },
            {
              "internalType": "uint256",
              "name": "duration",
              "type": "uint256"
            },
            {
              "internalType": "address",
              "name": "collateralAddr",
              "type": "address"
            },
            {
              "internalType": "uint256",
              "name": "collatrealAmount",
              "type": "uint256"
            }
          ],
          "internalType": "struct ICoinCred.RequestLoan[]",
          "name": "loans",
          "type": "tuple[]"
        }
      ],
      "stateMutability": "view",
      "type": "function"
    },
    {
      "inputs": [],
      "name": "getAllRequest",
      "outputs": [
        {
          "components": [
            {
              "internalType": "address",
              "name": "loanRequester",
              "type": "address"
            },
            {
              "internalType": "address",
              "name": "lender",
              "type": "address"
            },
            {
              "internalType": "address",
              "name": "tokenRequest",
              "type": "address"
            },
            {
              "internalType": "uint256",
              "name": "tokenAmount",
              "type": "uint256"
            },
            {
              "internalType": "uint256",
              "name": "tokenProfit",
              "type": "uint256"
            },
            {
              "internalType": "uint256",
              "name": "loanId",
              "type": "uint256"
            },
            {
              "internalType": "bool",
              "name": "lendOut",
              "type": "bool"
            },
            {
              "internalType": "uint256",
              "name": "duration",
              "type": "uint256"
            },
            {
              "internalType": "address",
              "name": "collateralAddr",
              "type": "address"
            },
            {
              "internalType": "uint256",
              "name": "collatrealAmount",
              "type": "uint256"
            }
          ],
          "internalType": "struct ICoinCred.RequestLoan[]",
          "name": "loans",
          "type": "tuple[]"
        }
      ],
      "stateMutability": "view",
      "type": "function"
    },
    {
      "inputs": [
        {
          "internalType": "address",
          "name": "_user",
          "type": "address"
        }
      ],
      "name": "getAllUserLoanRequests",
      "outputs": [
        {
          "components": [
            {
              "internalType": "address",
              "name": "loanRequester",
              "type": "address"
            },
            {
              "internalType": "address",
              "name": "lender",
              "type": "address"
            },
            {
              "internalType": "address",
              "name": "tokenRequest",
              "type": "address"
            },
            {
              "internalType": "uint256",
              "name": "tokenAmount",
              "type": "uint256"
            },
            {
              "internalType": "uint256",
              "name": "tokenProfit",
              "type": "uint256"
            },
            {
              "internalType": "uint256",
              "name": "loanId",
              "type": "uint256"
            },
            {
              "internalType": "bool",
              "name": "lendOut",
              "type": "bool"
            },
            {
              "internalType": "uint256",
              "name": "duration",
              "type": "uint256"
            },
            {
              "internalType": "address",
              "name": "collateralAddr",
              "type": "address"
            },
            {
              "internalType": "uint256",
              "name": "collatrealAmount",
              "type": "uint256"
            }
          ],
          "internalType": "struct ICoinCred.RequestLoan[]",
          "name": "loans",
          "type": "tuple[]"
        }
      ],
      "stateMutability": "view",
      "type": "function"
    },
    {
      "inputs": [],
      "name": "getCurrentBlockTimeStamp",
      "outputs": [
        {
          "internalType": "uint256",
          "name": "",
          "type": "uint256"
        }
      ],
      "stateMutability": "view",
      "type": "function"
    },
    {
      "inputs": [
        {
          "internalType": "address",
          "name": "_feed",
          "type": "address"
        }
      ],
      "name": "getTokenValue",
      "outputs": [
        {
          "internalType": "uint256",
          "name": "",
          "type": "uint256"
        }
      ],
      "stateMutability": "view",
      "type": "function"
    },
    {
      "inputs": [
        {
          "internalType": "uint256",
          "name": "_loanId",
          "type": "uint256"
        }
      ],
      "name": "lendtoken",
      "outputs": [],
      "stateMutability": "nonpayable",
      "type": "function"
    },
    {
      "inputs": [
        {
          "internalType": "uint256",
          "name": "_loanId",
          "type": "uint256"
        }
      ],
      "name": "liquidate",
      "outputs": [],
      "stateMutability": "nonpayable",
      "type": "function"
    },
    {
      "inputs": [
        {
          "internalType": "uint256",
          "name": "",
          "type": "uint256"
        }
      ],
      "name": "requestloan",
      "outputs": [
        {
          "internalType": "address",
          "name": "loanRequester",
          "type": "address"
        },
        {
          "internalType": "address",
          "name": "lender",
          "type": "address"
        },
        {
          "internalType": "address",
          "name": "tokenRequest",
          "type": "address"
        },
        {
          "internalType": "uint256",
          "name": "tokenAmount",
          "type": "uint256"
        },
        {
          "internalType": "uint256",
          "name": "tokenProfit",
          "type": "uint256"
        },
        {
          "internalType": "uint256",
          "name": "loanId",
          "type": "uint256"
        },
        {
          "internalType": "bool",
          "name": "lendOut",
          "type": "bool"
        },
        {
          "internalType": "uint256",
          "name": "duration",
          "type": "uint256"
        },
        {
          "internalType": "address",
          "name": "collateralAddr",
          "type": "address"
        },
        {
          "internalType": "uint256",
          "name": "collatrealAmount",
          "type": "uint256"
        }
      ],
      "stateMutability": "view",
      "type": "function"
    },
    {
      "inputs": [
        {
          "internalType": "address",
          "name": "",
          "type": "address"
        }
      ],
      "name": "tokenAllowed",
      "outputs": [
        {
          "internalType": "bool",
          "name": "",
          "type": "bool"
        }
      ],
      "stateMutability": "view",
      "type": "function"
    },
    {
      "inputs": [
        {
          "internalType": "address",
          "name": "",
          "type": "address"
        }
      ],
      "name": "tokens",
      "outputs": [
        {
          "internalType": "address",
          "name": "",
          "type": "address"
        }
      ],
      "stateMutability": "view",
      "type": "function"
    },
    {
      "stateMutability": "payable",
      "type": "receive"
    }
  ],
  "bytecode": "0x60806040523480156200001157600080fd5b50604051620039ee380380620039ee83398181016040528101906200003791906200066b565b60008451116200007e576040517f08c379a00000000000000000000000000000000000000000000000000000000081526004016200007590620007ba565b60405180910390fd5b6000835111620000c5576040517f08c379a0000000000000000000000000000000000000000000000000000000008152600401620000bc90620007ba565b60405180910390fd5b82518451146200010c576040517f08c379a000000000000000000000000000000000000000000000000000000000815260040162000103906200082c565b60405180910390fd5b600082511162000153576040517f08c379a00000000000000000000000000000000000000000000000000000000081526004016200014a90620007ba565b60405180910390fd5b60008151116200019a576040517f08c379a00000000000000000000000000000000000000000000000000000000081526004016200019190620007ba565b60405180910390fd5b8051825114620001e1576040517f08c379a0000000000000000000000000000000000000000000000000000000008152600401620001d8906200082c565b60405180910390fd5b60005b845181101562000329578381815181106200020457620002036200084e565b5b6020026020010151600360008784815181106200022657620002256200084e565b5b602002602001015173ffffffffffffffffffffffffffffffffffffffff1673ffffffffffffffffffffffffffffffffffffffff16815260200190815260200160002060006101000a81548173ffffffffffffffffffffffffffffffffffffffff021916908373ffffffffffffffffffffffffffffffffffffffff160217905550600160056000878481518110620002c257620002c16200084e565b5b602002602001015173ffffffffffffffffffffffffffffffffffffffff1673ffffffffffffffffffffffffffffffffffffffff16815260200190815260200160002060006101000a81548160ff0219169083151502179055508080600101915050620001e4565b5060005b825181101562000472578181815181106200034d576200034c6200084e565b5b6020026020010151600460008584815181106200036f576200036e6200084e565b5b602002602001015173ffffffffffffffffffffffffffffffffffffffff1673ffffffffffffffffffffffffffffffffffffffff16815260200190815260200160002060006101000a81548173ffffffffffffffffffffffffffffffffffffffff021916908373ffffffffffffffffffffffffffffffffffffffff1602179055506001600660008584815181106200040b576200040a6200084e565b5b602002602001015173ffffffffffffffffffffffffffffffffffffffff1673ffffffffffffffffffffffffffffffffffffffff16815260200190815260200160002060006101000a81548160ff02191690831515021790555080806001019150506200032d565b50505050506200087d565b6000604051905090565b600080fd5b600080fd5b600080fd5b6000601f19601f8301169050919050565b7f4e487b7100000000000000000000000000000000000000000000000000000000600052604160045260246000fd5b620004e18262000496565b810181811067ffffffffffffffff82111715620005035762000502620004a7565b5b80604052505050565b6000620005186200047d565b9050620005268282620004d6565b919050565b600067ffffffffffffffff821115620005495762000548620004a7565b5b602082029050602081019050919050565b600080fd5b600073ffffffffffffffffffffffffffffffffffffffff82169050919050565b60006200058c826200055f565b9050919050565b6200059e816200057f565b8114620005aa57600080fd5b50565b600081519050620005be8162000593565b92915050565b6000620005db620005d5846200052b565b6200050c565b905080838252602082019050602084028301858111156200060157620006006200055a565b5b835b818110156200062e5780620006198882620005ad565b84526020840193505060208101905062000603565b5050509392505050565b600082601f83011262000650576200064f62000491565b5b815162000662848260208601620005c4565b91505092915050565b6000806000806080858703121562000688576200068762000487565b5b600085015167ffffffffffffffff811115620006a957620006a86200048c565b5b620006b78782880162000638565b945050602085015167ffffffffffffffff811115620006db57620006da6200048c565b5b620006e98782880162000638565b935050604085015167ffffffffffffffff8111156200070d576200070c6200048c565b5b6200071b8782880162000638565b925050606085015167ffffffffffffffff8111156200073f576200073e6200048c565b5b6200074d8782880162000638565b91505092959194509250565b600082825260208201905092915050565b7f746f6b656e732063616e277420626520656d7074790000000000000000000000600082015250565b6000620007a260158362000759565b9150620007af826200076a565b602082019050919050565b60006020820190508181036000830152620007d58162000793565b9050919050565b7f6e6f742073616d65206c656e6774680000000000000000000000000000000000600082015250565b600062000814600f8362000759565b91506200082182620007dc565b602082019050919050565b60006020820190508181036000830152620008478162000805565b9050919050565b7f4e487b7100000000000000000000000000000000000000000000000000000000600052603260045260246000fd5b613161806200088d6000396000f3fe60806040526004361061010d5760003560e01c8063b9e55b5b11610095578063d9af94af11610064578063d9af94af146103b5578063e4860339146103e0578063f1c5d6c21461041d578063f21449461461045a578063f7adca931461049757610114565b8063b9e55b5b146102e9578063bee7405614610326578063c33e186e1461034f578063cfd9d1be1461037857610114565b80635a680367116100dc5780635a680367146101ed5780635e5f2e261461021657806379571aa9146102535780638051eafc1461026f578063a5fdc5de146102ac57610114565b80630ddd137214610116578063415f12401461015c578063545569ba1461018557806355219d5a146101b057610114565b3661011457005b005b34801561012257600080fd5b5061013d60048036038101906101389190612546565b6104c2565b6040516101539a999897969594939291906125de565b60405180910390f35b34801561016857600080fd5b50610183600480360381019061017e9190612546565b6105a3565b005b34801561019157600080fd5b5061019a6109c2565b6040516101a79190612823565b60405180910390f35b3480156101bc57600080fd5b506101d760048036038101906101d29190612871565b610c1c565b6040516101e4919061289e565b60405180910390f35b3480156101f957600080fd5b50610214600480360381019061020f9190612546565b610c3c565b005b34801561022257600080fd5b5061023d60048036038101906102389190612546565b610ef1565b60405161024a91906128b9565b60405180910390f35b61026d600480360381019061026891906128d4565b610f30565b005b34801561027b57600080fd5b5061029660048036038101906102919190612546565b61124b565b6040516102a391906128b9565b60405180910390f35b3480156102b857600080fd5b506102d360048036038101906102ce9190612871565b61128a565b6040516102e091906128b9565b60405180910390f35b3480156102f557600080fd5b50610310600480360381019061030b9190612871565b6112bd565b60405161031d9190612823565b60405180910390f35b34801561033257600080fd5b5061034d60048036038101906103489190612546565b611626565b005b34801561035b57600080fd5b5061037660048036038101906103719190612546565b611911565b005b34801561038457600080fd5b5061039f600480360381019061039a9190612871565b611bf4565b6040516103ac9190612823565b60405180910390f35b3480156103c157600080fd5b506103ca611f5d565b6040516103d7919061294f565b60405180910390f35b3480156103ec57600080fd5b5061040760048036038101906104029190612871565b611f65565b60405161041491906128b9565b60405180910390f35b34801561042957600080fd5b50610444600480360381019061043f9190612871565b611f98565b604051610451919061294f565b60405180910390f35b34801561046657600080fd5b50610481600480360381019061047c9190612871565b61201f565b60405161048e919061289e565b60405180910390f35b3480156104a357600080fd5b506104ac61203f565b6040516104b99190612823565b60405180910390f35b60026020528060005260406000206000915090508060000160009054906101000a900473ffffffffffffffffffffffffffffffffffffffff16908060010160009054906101000a900473ffffffffffffffffffffffffffffffffffffffff16908060020160009054906101000a900473ffffffffffffffffffffffffffffffffffffffff16908060030154908060040154908060050154908060060160009054906101000a900460ff16908060070154908060080160009054906101000a900473ffffffffffffffffffffffffffffffffffffffff1690806009015490508a565b6007548111156105e8576040517f08c379a00000000000000000000000000000000000000000000000000000000081526004016105df906129c7565b60405180910390fd5b6000600260008381526020019081526020016000209050600115158160060160009054906101000a900460ff16151514610657576040517f08c379a000000000000000000000000000000000000000000000000000000000815260040161064e90612a33565b60405180910390fd5b600073ffffffffffffffffffffffffffffffffffffffff168160010160009054906101000a900473ffffffffffffffffffffffffffffffffffffffff1673ffffffffffffffffffffffffffffffffffffffff16036106ea576040517f08c379a00000000000000000000000000000000000000000000000000000000081526004016106e190612a9f565b60405180910390fd5b42816007015410610730576040517f08c379a000000000000000000000000000000000000000000000000000000000815260040161072790612b0b565b60405180910390fd5b8060020160009054906101000a900473ffffffffffffffffffffffffffffffffffffffff1673ffffffffffffffffffffffffffffffffffffffff166323b872dd338360000160009054906101000a900473ffffffffffffffffffffffffffffffffffffffff16846004015485600301546107aa9190612b5a565b6040518463ffffffff1660e01b81526004016107c893929190612b8e565b6020604051808303816000875af11580156107e7573d6000803e3d6000fd5b505050506040513d601f19601f8201168201806040525081019061080b9190612bf1565b61084a576040517f08c379a000000000000000000000000000000000000000000000000000000000815260040161084190612c6a565b60405180910390fd5b3373ffffffffffffffffffffffffffffffffffffffff166108fc82600901549081150290604051600060405180830381858888f19350505050158015610894573d6000803e3d6000fd5b5060008160060160006101000a81548160ff02191690831515021790555060008160010160006101000a81548173ffffffffffffffffffffffffffffffffffffffff021916908373ffffffffffffffffffffffffffffffffffffffff1602179055503373ffffffffffffffffffffffffffffffffffffffff168160020160009054906101000a900473ffffffffffffffffffffffffffffffffffffffff1673ffffffffffffffffffffffffffffffffffffffff168260000160009054906101000a900473ffffffffffffffffffffffffffffffffffffffff1673ffffffffffffffffffffffffffffffffffffffff167f033fe6dadd06de536cd7b34266e12610e9d77a23d48d3d6218962a87cb74051484600301546040516109b6919061294f565b60405180910390a45050565b606060075467ffffffffffffffff8111156109e0576109df612c8a565b5b604051908082528060200260200182016040528015610a1957816020015b610a0661245e565b8152602001906001900390816109fe5790505b50905060005b600754811015610c185760026000828152602001908152602001600020604051806101400160405290816000820160009054906101000a900473ffffffffffffffffffffffffffffffffffffffff1673ffffffffffffffffffffffffffffffffffffffff1673ffffffffffffffffffffffffffffffffffffffff1681526020016001820160009054906101000a900473ffffffffffffffffffffffffffffffffffffffff1673ffffffffffffffffffffffffffffffffffffffff1673ffffffffffffffffffffffffffffffffffffffff1681526020016002820160009054906101000a900473ffffffffffffffffffffffffffffffffffffffff1673ffffffffffffffffffffffffffffffffffffffff1673ffffffffffffffffffffffffffffffffffffffff1681526020016003820154815260200160048201548152602001600582015481526020016006820160009054906101000a900460ff16151515158152602001600782015481526020016008820160009054906101000a900473ffffffffffffffffffffffffffffffffffffffff1673ffffffffffffffffffffffffffffffffffffffff1673ffffffffffffffffffffffffffffffffffffffff168152602001600982015481525050828281518110610c0057610bff612cb9565b5b60200260200101819052508080600101915050610a1f565b5090565b60056020528060005260406000206000915054906101000a900460ff1681565b600754811115610c81576040517f08c379a0000000000000000000000000000000000000000000000000000000008152600401610c78906129c7565b60405180910390fd5b6000600260008381526020019081526020016000209050600073ffffffffffffffffffffffffffffffffffffffff168160010160009054906101000a900473ffffffffffffffffffffffffffffffffffffffff1673ffffffffffffffffffffffffffffffffffffffff1614610d2b576040517f08c379a0000000000000000000000000000000000000000000000000000000008152600401610d2290612d34565b60405180910390fd5b600015158160060160009054906101000a900460ff16151514610d83576040517f08c379a0000000000000000000000000000000000000000000000000000000008152600401610d7a90612da0565b60405180910390fd5b3373ffffffffffffffffffffffffffffffffffffffff168160000160009054906101000a900473ffffffffffffffffffffffffffffffffffffffff1673ffffffffffffffffffffffffffffffffffffffff1614610e15576040517f08c379a0000000000000000000000000000000000000000000000000000000008152600401610e0c90612e0c565b60405180910390fd5b3373ffffffffffffffffffffffffffffffffffffffff166108fc82600901549081150290604051600060405180830381858888f19350505050158015610e5f573d6000803e3d6000fd5b508060020160009054906101000a900473ffffffffffffffffffffffffffffffffffffffff1673ffffffffffffffffffffffffffffffffffffffff163373ffffffffffffffffffffffffffffffffffffffff167f977ca88fbe72d930c467bb5e513bf5120fa044293ebf66e5deb33354c612c9fb8360090154604051610ee5919061294f565b60405180910390a35050565b60008181548110610f0157600080fd5b906000526020600020016000915054906101000a900473ffffffffffffffffffffffffffffffffffffffff1681565b6000349050610f4186868484612332565b600060075490506040518061014001604052803373ffffffffffffffffffffffffffffffffffffffff168152602001600073ffffffffffffffffffffffffffffffffffffffff1681526020018873ffffffffffffffffffffffffffffffffffffffff1681526020018781526020018681526020018281526020016000151581526020018542610fd09190612b5a565b81526020018473ffffffffffffffffffffffffffffffffffffffff168152602001838152506002600083815260200190815260200160002060008201518160000160006101000a81548173ffffffffffffffffffffffffffffffffffffffff021916908373ffffffffffffffffffffffffffffffffffffffff16021790555060208201518160010160006101000a81548173ffffffffffffffffffffffffffffffffffffffff021916908373ffffffffffffffffffffffffffffffffffffffff16021790555060408201518160020160006101000a81548173ffffffffffffffffffffffffffffffffffffffff021916908373ffffffffffffffffffffffffffffffffffffffff160217905550606082015181600301556080820151816004015560a0820151816005015560c08201518160060160006101000a81548160ff02191690831515021790555060e082015181600701556101008201518160080160006101000a81548173ffffffffffffffffffffffffffffffffffffffff021916908373ffffffffffffffffffffffffffffffffffffffff16021790555061012082015181600901559050503073ffffffffffffffffffffffffffffffffffffffff166108fc839081150290604051600060405180830381858888f193505050501580156111c1573d6000803e3d6000fd5b50600760008154809291906111d590612e2c565b9190505550858773ffffffffffffffffffffffffffffffffffffffff163373ffffffffffffffffffffffffffffffffffffffff167f0e7d4492d1a564b49460550a59ceb62b6aa242317c1640fe40aac9287ad40ceb888560405161123a929190612e74565b60405180910390a450505050505050565b6001818154811061125b57600080fd5b906000526020600020016000915054906101000a900473ffffffffffffffffffffffffffffffffffffffff1681565b60046020528060005260406000206000915054906101000a900473ffffffffffffffffffffffffffffffffffffffff1681565b60606000805b600754811015611352578373ffffffffffffffffffffffffffffffffffffffff166002600083815260200190815260200160002060010160009054906101000a900473ffffffffffffffffffffffffffffffffffffffff1673ffffffffffffffffffffffffffffffffffffffff160361134557818061134190612e2c565b9250505b80806001019150506112c3565b508067ffffffffffffffff81111561136d5761136c612c8a565b5b6040519080825280602002602001820160405280156113a657816020015b61139361245e565b81526020019060019003908161138b5790505b5091506000805b60075481101561161e578473ffffffffffffffffffffffffffffffffffffffff166002600083815260200190815260200160002060000160009054906101000a900473ffffffffffffffffffffffffffffffffffffffff1673ffffffffffffffffffffffffffffffffffffffff16036116115760026000828152602001908152602001600020604051806101400160405290816000820160009054906101000a900473ffffffffffffffffffffffffffffffffffffffff1673ffffffffffffffffffffffffffffffffffffffff1673ffffffffffffffffffffffffffffffffffffffff1681526020016001820160009054906101000a900473ffffffffffffffffffffffffffffffffffffffff1673ffffffffffffffffffffffffffffffffffffffff1673ffffffffffffffffffffffffffffffffffffffff1681526020016002820160009054906101000a900473ffffffffffffffffffffffffffffffffffffffff1673ffffffffffffffffffffffffffffffffffffffff1673ffffffffffffffffffffffffffffffffffffffff1681526020016003820154815260200160048201548152602001600582015481526020016006820160009054906101000a900460ff16151515158152602001600782015481526020016008820160009054906101000a900473ffffffffffffffffffffffffffffffffffffffff1673ffffffffffffffffffffffffffffffffffffffff1673ffffffffffffffffffffffffffffffffffffffff1681526020016009820154815250508483815181106115f7576115f6612cb9565b5b6020026020010181905250818061160d90612e2c565b9250505b80806001019150506113ad565b505050919050565b60075481111561166b576040517f08c379a0000000000000000000000000000000000000000000000000000000008152600401611662906129c7565b60405180910390fd5b6000600260008381526020019081526020016000209050600115158160060160009054906101000a900460ff161515036116da576040517f08c379a00000000000000000000000000000000000000000000000000000000081526004016116d190612ee9565b60405180910390fd5b8060020160009054906101000a900473ffffffffffffffffffffffffffffffffffffffff1673ffffffffffffffffffffffffffffffffffffffff166323b872dd338360000160009054906101000a900473ffffffffffffffffffffffffffffffffffffffff1684600301546040518463ffffffff1660e01b815260040161176393929190612b8e565b6020604051808303816000875af1158015611782573d6000803e3d6000fd5b505050506040513d601f19601f820116820180604052508101906117a69190612bf1565b6117e5576040517f08c379a00000000000000000000000000000000000000000000000000000000081526004016117dc90612c6a565b60405180910390fd5b338160010160006101000a81548173ffffffffffffffffffffffffffffffffffffffff021916908373ffffffffffffffffffffffffffffffffffffffff16021790555060018160060160006101000a81548160ff0219169083151502179055503373ffffffffffffffffffffffffffffffffffffffff168160020160009054906101000a900473ffffffffffffffffffffffffffffffffffffffff1673ffffffffffffffffffffffffffffffffffffffff168260000160009054906101000a900473ffffffffffffffffffffffffffffffffffffffff1673ffffffffffffffffffffffffffffffffffffffff167f3bddfdb5b4f9660d17927edf2b13fb445e11ea36871a2bf0060621f77bbaeb958460030154604051611905919061294f565b60405180910390a45050565b600754811115611956576040517f08c379a000000000000000000000000000000000000000000000000000000000815260040161194d906129c7565b60405180910390fd5b6000600260008381526020019081526020016000209050600115158160060160009054906101000a900460ff161515146119c5576040517f08c379a00000000000000000000000000000000000000000000000000000000081526004016119bc90612f55565b60405180910390fd5b8060020160009054906101000a900473ffffffffffffffffffffffffffffffffffffffff1673ffffffffffffffffffffffffffffffffffffffff166323b872dd338360000160009054906101000a900473ffffffffffffffffffffffffffffffffffffffff1684600401548560030154611a3f9190612b5a565b6040518463ffffffff1660e01b8152600401611a5d93929190612b8e565b6020604051808303816000875af1158015611a7c573d6000803e3d6000fd5b505050506040513d601f19601f82011682018060405250810190611aa09190612bf1565b611adf576040517f08c379a0000000000000000000000000000000000000000000000000000000008152600401611ad690612c6a565b60405180910390fd5b3373ffffffffffffffffffffffffffffffffffffffff166108fc82600901549081150290604051600060405180830381858888f19350505050158015611b29573d6000803e3d6000fd5b50600015158160060160009054906101000a905050508060020160009054906101000a900473ffffffffffffffffffffffffffffffffffffffff1673ffffffffffffffffffffffffffffffffffffffff168160000160009054906101000a900473ffffffffffffffffffffffffffffffffffffffff1673ffffffffffffffffffffffffffffffffffffffff167f05f2eeda0e08e4b437f487c8d7d29b14537d15e3488170dc3de5dbdf8dac46848360030154604051611be8919061294f565b60405180910390a35050565b60606000805b600754811015611c89578373ffffffffffffffffffffffffffffffffffffffff166002600083815260200190815260200160002060000160009054906101000a900473ffffffffffffffffffffffffffffffffffffffff1673ffffffffffffffffffffffffffffffffffffffff1603611c7c578180611c7890612e2c565b9250505b8080600101915050611bfa565b508067ffffffffffffffff811115611ca457611ca3612c8a565b5b604051908082528060200260200182016040528015611cdd57816020015b611cca61245e565b815260200190600190039081611cc25790505b5091506000805b600754811015611f55578473ffffffffffffffffffffffffffffffffffffffff166002600083815260200190815260200160002060000160009054906101000a900473ffffffffffffffffffffffffffffffffffffffff1673ffffffffffffffffffffffffffffffffffffffff1603611f485760026000828152602001908152602001600020604051806101400160405290816000820160009054906101000a900473ffffffffffffffffffffffffffffffffffffffff1673ffffffffffffffffffffffffffffffffffffffff1673ffffffffffffffffffffffffffffffffffffffff1681526020016001820160009054906101000a900473ffffffffffffffffffffffffffffffffffffffff1673ffffffffffffffffffffffffffffffffffffffff1673ffffffffffffffffffffffffffffffffffffffff1681526020016002820160009054906101000a900473ffffffffffffffffffffffffffffffffffffffff1673ffffffffffffffffffffffffffffffffffffffff1673ffffffffffffffffffffffffffffffffffffffff1681526020016003820154815260200160048201548152602001600582015481526020016006820160009054906101000a900460ff16151515158152602001600782015481526020016008820160009054906101000a900473ffffffffffffffffffffffffffffffffffffffff1673ffffffffffffffffffffffffffffffffffffffff1673ffffffffffffffffffffffffffffffffffffffff168152602001600982015481525050848381518110611f2e57611f2d612cb9565b5b60200260200101819052508180611f4490612e2c565b9250505b8080600101915050611ce4565b505050919050565b600042905090565b60036020528060005260406000206000915054906101000a900473ffffffffffffffffffffffffffffffffffffffff1681565b60008082905060008173ffffffffffffffffffffffffffffffffffffffff1663feaf968c6040518163ffffffff1660e01b815260040160a060405180830381865afa158015611feb573d6000803e3d6000fd5b505050506040513d601f19601f8201168201806040525081019061200f9190613002565b5050509150508092505050919050565b60066020528060005260406000206000915054906101000a900460ff1681565b60606000805b60075481101561209a57600015156002600083815260200190815260200160002060060160009054906101000a900460ff1615150361208d57818061208990612e2c565b9250505b8080600101915050612045565b508067ffffffffffffffff8111156120b5576120b4612c8a565b5b6040519080825280602002602001820160405280156120ee57816020015b6120db61245e565b8152602001906001900390816120d35790505b5091506000805b60075481101561232c57600015156002600083815260200190815260200160002060060160009054906101000a900460ff1615150361231f5760026000828152602001908152602001600020604051806101400160405290816000820160009054906101000a900473ffffffffffffffffffffffffffffffffffffffff1673ffffffffffffffffffffffffffffffffffffffff1673ffffffffffffffffffffffffffffffffffffffff1681526020016001820160009054906101000a900473ffffffffffffffffffffffffffffffffffffffff1673ffffffffffffffffffffffffffffffffffffffff1673ffffffffffffffffffffffffffffffffffffffff1681526020016002820160009054906101000a900473ffffffffffffffffffffffffffffffffffffffff1673ffffffffffffffffffffffffffffffffffffffff1673ffffffffffffffffffffffffffffffffffffffff1681526020016003820154815260200160048201548152602001600582015481526020016006820160009054906101000a900460ff16151515158152602001600782015481526020016008820160009054906101000a900473ffffffffffffffffffffffffffffffffffffffff1673ffffffffffffffffffffffffffffffffffffffff1673ffffffffffffffffffffffffffffffffffffffff16815260200160098201548152505084838151811061230557612304612cb9565b5b6020026020010181905250818061231b90612e2c565b9250505b80806001019150506120f5565b50505090565b61239a600360008673ffffffffffffffffffffffffffffffffffffffff1673ffffffffffffffffffffffffffffffffffffffff16815260200190815260200160002060009054906101000a900473ffffffffffffffffffffffffffffffffffffffff16611f98565b836123a5919061307d565b61240d600460008573ffffffffffffffffffffffffffffffffffffffff1673ffffffffffffffffffffffffffffffffffffffff16815260200190815260200160002060009054906101000a900473ffffffffffffffffffffffffffffffffffffffff16611f98565b82612418919061307d565b11612458576040517f08c379a000000000000000000000000000000000000000000000000000000000815260040161244f9061310b565b60405180910390fd5b50505050565b604051806101400160405280600073ffffffffffffffffffffffffffffffffffffffff168152602001600073ffffffffffffffffffffffffffffffffffffffff168152602001600073ffffffffffffffffffffffffffffffffffffffff16815260200160008152602001600081526020016000815260200160001515815260200160008152602001600073ffffffffffffffffffffffffffffffffffffffff168152602001600081525090565b600080fd5b6000819050919050565b61252381612510565b811461252e57600080fd5b50565b6000813590506125408161251a565b92915050565b60006020828403121561255c5761255b61250b565b5b600061256a84828501612531565b91505092915050565b600073ffffffffffffffffffffffffffffffffffffffff82169050919050565b600061259e82612573565b9050919050565b6125ae81612593565b82525050565b6125bd81612510565b82525050565b60008115159050919050565b6125d8816125c3565b82525050565b6000610140820190506125f4600083018d6125a5565b612601602083018c6125a5565b61260e604083018b6125a5565b61261b606083018a6125b4565b61262860808301896125b4565b61263560a08301886125b4565b61264260c08301876125cf565b61264f60e08301866125b4565b61265d6101008301856125a5565b61266b6101208301846125b4565b9b9a5050505050505050505050565b600081519050919050565b600082825260208201905092915050565b6000819050602082019050919050565b6126af81612593565b82525050565b6126be81612510565b82525050565b6126cd816125c3565b82525050565b610140820160008201516126ea60008501826126a6565b5060208201516126fd60208501826126a6565b50604082015161271060408501826126a6565b50606082015161272360608501826126b5565b50608082015161273660808501826126b5565b5060a082015161274960a08501826126b5565b5060c082015161275c60c08501826126c4565b5060e082015161276f60e08501826126b5565b506101008201516127846101008501826126a6565b506101208201516127996101208501826126b5565b50505050565b60006127ab83836126d3565b6101408301905092915050565b6000602082019050919050565b60006127d08261267a565b6127da8185612685565b93506127e583612696565b8060005b838110156128165781516127fd888261279f565b9750612808836127b8565b9250506001810190506127e9565b5085935050505092915050565b6000602082019050818103600083015261283d81846127c5565b905092915050565b61284e81612593565b811461285957600080fd5b50565b60008135905061286b81612845565b92915050565b6000602082840312156128875761288661250b565b5b60006128958482850161285c565b91505092915050565b60006020820190506128b360008301846125cf565b92915050565b60006020820190506128ce60008301846125a5565b92915050565b600080600080600060a086880312156128f0576128ef61250b565b5b60006128fe8882890161285c565b955050602061290f88828901612531565b945050604061292088828901612531565b935050606061293188828901612531565b92505060806129428882890161285c565b9150509295509295909350565b600060208201905061296460008301846125b4565b92915050565b600082825260208201905092915050565b7f7265717565737420646f6573206e6f7420657869737473000000000000000000600082015250565b60006129b160178361296a565b91506129bc8261297b565b602082019050919050565b600060208201905081810360008301526129e0816129a4565b9050919050565b7f63616e2774206c69717569646174650000000000000000000000000000000000600082015250565b6000612a1d600f8361296a565b9150612a28826129e7565b602082019050919050565b60006020820190508181036000830152612a4c81612a10565b9050919050565b7f6e6f206c656e6465720000000000000000000000000000000000000000000000600082015250565b6000612a8960098361296a565b9150612a9482612a53565b602082019050919050565b60006020820190508181036000830152612ab881612a7c565b9050919050565b7f416374697665204c6f616e000000000000000000000000000000000000000000600082015250565b6000612af5600b8361296a565b9150612b0082612abf565b602082019050919050565b60006020820190508181036000830152612b2481612ae8565b9050919050565b7f4e487b7100000000000000000000000000000000000000000000000000000000600052601160045260246000fd5b6000612b6582612510565b9150612b7083612510565b9250828201905080821115612b8857612b87612b2b565b5b92915050565b6000606082019050612ba360008301866125a5565b612bb060208301856125a5565b612bbd60408301846125b4565b949350505050565b612bce816125c3565b8114612bd957600080fd5b50565b600081519050612beb81612bc5565b92915050565b600060208284031215612c0757612c0661250b565b5b6000612c1584828501612bdc565b91505092915050565b7f6661696c65640000000000000000000000000000000000000000000000000000600082015250565b6000612c5460068361296a565b9150612c5f82612c1e565b602082019050919050565b60006020820190508181036000830152612c8381612c47565b9050919050565b7f4e487b7100000000000000000000000000000000000000000000000000000000600052604160045260246000fd5b7f4e487b7100000000000000000000000000000000000000000000000000000000600052603260045260246000fd5b7f63616e27742063616e63656c0000000000000000000000000000000000000000600082015250565b6000612d1e600c8361296a565b9150612d2982612ce8565b602082019050919050565b60006020820190508181036000830152612d4d81612d11565b9050919050565b7f416c72656179206c6f616e6564204f7574000000000000000000000000000000600082015250565b6000612d8a60118361296a565b9150612d9582612d54565b602082019050919050565b60006020820190508181036000830152612db981612d7d565b9050919050565b7f6e6f7420796f7572206c6f616e00000000000000000000000000000000000000600082015250565b6000612df6600d8361296a565b9150612e0182612dc0565b602082019050919050565b60006020820190508181036000830152612e2581612de9565b9050919050565b6000612e3782612510565b91507fffffffffffffffffffffffffffffffffffffffffffffffffffffffffffffffff8203612e6957612e68612b2b565b5b600182019050919050565b6000604082019050612e8960008301856125b4565b612e9660208301846125b4565b9392505050565b7f616c7265616479206c656e644f75740000000000000000000000000000000000600082015250565b6000612ed3600f8361296a565b9150612ede82612e9d565b602082019050919050565b60006020820190508181036000830152612f0281612ec6565b9050919050565b7f6e6f7420796574206c656e64206f757400000000000000000000000000000000600082015250565b6000612f3f60108361296a565b9150612f4a82612f09565b602082019050919050565b60006020820190508181036000830152612f6e81612f32565b9050919050565b600069ffffffffffffffffffff82169050919050565b612f9481612f75565b8114612f9f57600080fd5b50565b600081519050612fb181612f8b565b92915050565b6000819050919050565b612fca81612fb7565b8114612fd557600080fd5b50565b600081519050612fe781612fc1565b92915050565b600081519050612ffc8161251a565b92915050565b600080600080600060a0868803121561301e5761301d61250b565b5b600061302c88828901612fa2565b955050602061303d88828901612fd8565b945050604061304e88828901612fed565b935050606061305f88828901612fed565b925050608061307088828901612fa2565b9150509295509295909350565b600061308882612510565b915061309383612510565b92508282026130a181612510565b915082820484148315176130b8576130b7612b2b565b5b5092915050565b7f436f6c6c61746572616c206973206c6573730000000000000000000000000000600082015250565b60006130f560128361296a565b9150613100826130bf565b602082019050919050565b60006020820190508181036000830152613124816130e8565b905091905056fea2646970667358221220c9c1933093325ecfb0a239dd51ce9baf9aa4e60d9c37bdffe904a600c042e8dc64736f6c63430008180033",
  "linkReferences": {},
  "deployedLinkReferences": {}
}